:0F1F52007D0A90012CE0FEA3E0FF7C00020593C6
:10123C00121CFC121E0E120FF7121E25121998E426
:10124C009000BCF0A304F07B0AFDFF1210007F900D
:10125C007E01121DF67F01120016AC06AD07E412DA
:10126C000382E4FBFA798078441202677B337A3389
:10127C0079D3784012015E7B667A66792678C01243
:10128C00006DE4FBFA79C0783F12026790012812D6
:10129C0006497F007E407D1C7C4690012812063159
:1012AC0012015E1203BB90012CEEF0A3EFF07C0355
:1012BC007DE8120593AA077D64121F547C007D0AF9
:1012CC00120593AB05121F527C007D0A12059390F8
:1012DC0000BCEDF0121F529000BDEDF0AD027F018D
:1012EC00121000121EB4121FCD1215E61218BC12E9
:1012FC001E67121DC31208007F0A7E00121DF680A5
:01130C00F4EC
:101EA200EFFD7C007003D29122ED64014C7002C2FE
:021EB20091227B
:101EB40090FE29E054FDF05391FD439202E4FF02A9
:021EC4001EA25C
:061CD600AB078D828C8338
:101CDC00E4FAEAC39B500D7F01121CF1E4FF121CC5
:041CEC00F10A80EE8B
:0C1CF00022121EA2AF82AE83121DF6224B
:101CFC0043BA8090FE01E4F090FE03E044C0F09003
:101D0C00FE03E0540160F890FE007401F090FE02B6
:051D1C00E0547FF022FD
:091E3C0046012E00000000000028
:101E5200538EEF75D65D75D73E90010CE022438E0E
:051E6200109001342284
:101DC300D288D2A8D28AD2AA53B8FA53B7FA438F89
:0A1DD3001053B1B353B2B3D2AF22E4
:03000300021B4598
:101B4500C0E0C083C082C0D075D000C006C0079079
:101B55000134E0FF7E0064017011121E5270059081
:101B6500012F04F0900134E4F08009EF4E70051266
:101B75001E6004F0D007D006D0D0D082D083D0E04C
:011B8500322D
:030013000219F8D7
:1019F800C0E0C083C082C0D075D000C001C002C0A2
:101A080003C004C005C006C007900134E0F96402B1
:101A1800701A121E52700E7D32FC7F01121CD69075
:101A280001317401F0900134E4F08009E970061284
:101A38001E607402F0D007D006D005D004D003D0C1
:0C1A480002D001D0D0D082D083D0E03298
:03005300021A543A
:101A5400C0E0C083C082C0D075D000C001C002C045
:101A640003C004C005C006C007900134E0F9640354
:101A7400701A121E52700E7D32FC7F01121CD69019
:101A840001337401F0900134E4F08009E970061226
:101A94001E607403F0D007D006D005D004D003D064
:0C1AA40002D001D0D0D082D083D0E0323C
:101BF10075C65A75C6A5E5C754106410223EFEE0AD
:101C0100FCA3E0FDC32225E0FEE02400FF22EDF06D
:101C1100D394077480948022EF9DFFEE9C8F82F510
:021C210083221C
:070FF70075F52043C78022BD
:0313DB009000BCC3
:1013DE00121C0F501C9000BEE094FF9000BDE094D4
:1013EE0001500E9000C0E094009000BFE0940240C7
:1013FE00037F01229000BCE0FD25E0F5C3E4F5C4B7
:10140E0075C503121BF1700653C7EF7F022275C517
:10141E0002ED9000BE121C079000BDE03E9000C190
:10142E00F0A3EFF09000BCE09000C0121C079000FB
:10143E00BFE03EFE9000BEE02FFF9000BDE09000AA
:10144E00C1121BFE9FEC9E5037ECF5C38DC490006D
:10145E00BCE025E0FEC3ED9400FFEC9EFEA3121C43
:10146E0000121C19120532F5C2121BF1700653C779
:10147E00EF7F03229000C1E475F0011205E880A40D
:02148E007F00DD
:011490002239
:03153D0090010416
:10154000121C0F501BA3E0FCA3E0FD94FFEC9401E0
:10155000500E900108E09400900107E094024003CF
:101560007F012275C501900104E07F0025E0FEEFB8
:101570002DFFEC3E900109F0A3EFF0900104E0256F
:10158000E0FE900108E02400FF900107E03EFE909D
:101590000106E02FFF900105E0900109121BFE9F5C
:1015A000EC9E503FECF5C38DC4121BF1700653C77F
:1015B000EF7F0222900104E025E0FEC390010AE0E3
:1015C0009400FF900109E09EFE900105121C00129C
:1015D0001C19E5C2120571900109E475F0011205AC
:0515E000E880987F0087
:0115E50022E3
:101E0E004391095392F690FE31E054F6F075DE21BF
:071E1E0090FEA874FFF02202
:10001600EFFD7C00700553BCF0800CED64014C7064
:100026000653BCF043BC0343BC807F017E00121D17
:10003600F643BC40E5BC542060FA53BCDF53BC7F9A
:09004600AFBDEFFEADBEEDFF22DF
:091FC300007F2A7E8CDEFEDFFCAB
:011FCC0022F2
:101DF600AD07AC06D3ED9400EC9400400A121FC365
:081E0600ED1D70F01C80ED22BF
:051FDE00007F13DFFE8F
:011FE30022DB
:041E45004101340023
:101E670090FEA2741FF0538EF375D65D75D73E436F
:051E7700AF04D2AF2210
:03006300021B86F7
:101B8600C0E0C083C082C0D0538EEF900134E02401
:101B9600FE600C14600E2402701090012E800890D6
:101BA600013080039001327401F0900134E4F0D0EA
:081BB600D0D082D083D0E032D0
:101E250043913043923090FE21E054CFF0D2951289
:071E35001FDED294021FDE44
:0F1F6100D294121FDED295121FDEC294021FDE31
:0F1F7000C294121FDED295121FDED294021FDE22
:101C7E00E4FED294121FDED295121FDE30940DEECA
:101C8E00C394FF7480948050030E80F0C295121F8F
:0B1C9E00DEAF06EFF47002FF227F01B2
:011CA9002218
:101CAA00EFFD7C007008C295D294121CCB22ED6421
:101CBA00014C700CC295C294121CCBD294121FDE36
:0C1CCA0022121FDED295121FDEC29522EE
:0207D000AE0772
:1007D200E4FDEDC39408748094805016EE25E0FE8B
:1007E200C295121FDE9294121FDED295121FDE0DE9
:0C07F20080E0C295121FDED294021FDED0
:101C2300E4FEC295121FDED294FDEDC394087480C6
:101C330094805017D295121FDEEE25E0FFA294E4A4
:0D1C4300334FFEC295121FDE0D80DFAF068D
:011C50002271
:101B00009000BEE0FCA3E0FDE41203827BFA7AEDD4
:101B10002212006D9000C012063102015E9000BDDD
:101B2000E0FF3395E0FEEF64044E229000BDE02418
:101B3000FE2212015E9000C0020649EF54FEFFEF44
:051B400049FDAC062286
:101C5100AB05AA04AC07121F617F20121C77AF04E9
:101C6100121C77AF031207D0121C7EEAFF1207D0B5
:0D1C7100121C7E021F701207D0121C7E2272
:021AB000AC0781
:101AB200121F617F20121AF87003FEFF22AF041278
:101AC2001AF87003FEFF22121F617F211207D01243
:101AD2001C7EEF7003FEFF22121C23AB077F011254
:101AE2001CAA121C23AE07E4FF121CAA121F70AF1D
:051AF20006EFFEEBFF12
:091AF700221207D0121C7EEF221E
:021DA700A9078A
:101DA900E4FF121AB0AD07AC06EC54E7FCE9333393
:0A1DB9003354F84CFCE4FF021C5107
:021D2100A90710
:101D2300E4FF121AB0AD07AC06EC54FCFCED543FD3
:101D3300FDE975F040A4FFEC45F0FCED4FFDE4FF39
:031D4300021C512E
:021D8800A907A9
:101D8A00E4FF121AB0AD07AC06ED54FDFDE925E0FB
:0D1D9A00FFE4334CFCED4FFDE4FF021C5153
:021F7F00A907B0
:0D1F8100E4FF121AB0121B3BE4FF021C51DA
:021F8E00A907A1
:0D1F90007F03121AB0121B3B7F03021C518D
:051FE4007F04021AB0A9
:0A1FCD00E4FF121D88E4FF021F8EDE
:100BD000E49000BCF0A304F0E4A3F0A3F0A3120699
:100BE0005500000000120EA1E4FF121D217F021229
:100BF0001DA79000BCE0146010146013146016244C
:100C00000370197FC87E0080107F907E01800A7F6C
:100C1000207E0380047F407E06121DF6120EAED3A6
:100C20009464EE940050697F01121F7F121B1D60B7
:100C300003E004F09000BDE024FD600B14600C2480
:100C400002700D7F038006E4FF80027F01121DA762
:100C5000121B1D70369000BCE004F0E024FE600B17
:100C600014600C2402700D7F0180067F0280027FD9
:100C700003121D219000BC121B20700F7F01121F58
:100C80007F121B00796B783B02015E120EA161F2AC
:100C9000D39000BFE094109000BEE094275002A1D2
:100CA000727F01121F7F9000BCE014F0E060161408
:100CB000600F2403601A14601024FD70257F0280E9
:100CC0000A7F018006E4FF80027F08121D21801246
:100CD0007F0C121D21120EBA7F327E00121DF612F9
:100CE0000EAE9000BCE0FF3395E0FEEF64FE7002B4
:100CF000EEF47044A3E024FE601314601914601F26
:100D000024036002C166121B0079EB8005121B00F0
:100D1000796B783F801D121B00796B783E801490B0
:100D200000BEE0FCA3E0FDE41203827B667A6679F4
:100D3000E6783D121B32C166120EBA9000BCE0602C
:100D40001714600E2402601624FD70197F207E03A4
:100D500080107F907E01800A7FC87E0080047F64BF
:100D60007E00121DF6121FE49000BEEEF0A3EFF01D
:100D700081909000BCE07002A1FF14604D14602AC5
:100D800024037002C13224FC6002C166121B2B6076
:100D90000E14600D14600C24036002C166C120A112
:100DA000ED801E121B00796B801C121B2B600E1431
:100DB000600D14600C24036002C1668027C120808E
:100DC00035121B0079EB783BC163121B2B601514A5
:100DD000601B14602124036002C166121B00796B42
:100DE000783EC163121B0079EB783DC163121B0092
:100DF00079EB783CC163121B00796B783CC16312BC
:100E00001B2B601314601914601F24037058121BED
:100E10000079EB783EC163121B00796B783EC163A9
:100E2000121B00796B783D803A121B0079EB783CFD
:100E30008031121B2B601314601914601F2403707F
:100E400025121B00796B783F8019121B0079EB7813
:100E50003E8010121B0079EB783D8007121B007951
:100E60006B783D121B327FD67E437D297C2B121B73
:100E7000147B367A5C792178B2121B117B897AE473
:100E800079AA7838121B117B5E7A4B7980783F12F1
:100E90001B11121B357F01121F7F9000C012061814
:100EA00022E4FF121F7F7F037E00121DF622121F15
:100EB000E49000BEEEF0A3EFF022E4FF121F7F7F6C
:070EC000037E00121DF62263
:10192E00ED1205717D0A9000BDE0FEA3E0FF7C0084
:10193E000205931205717D0A9000C0E0FEA3E0FF40
:10194E007C000205937D0A7C001205939000BD0277
:10195E0006867C007D0A1205939000B902068690D9
:10196E0000B912063112015E1203BB9000C0EEF0F8
:10197E00A3EFF022AF03EFC454F022C39408748097
:0A198E009480227B017A0079C122C7
:101D4600AC07121F617F78121D607F40121D60AFC5
:101D5600041207D0121C7E021F701207D0121C7EBE
:011D6600225A
:101D6700AC07121F617F78121D81E4FF121D81AF3E
:101D7700041207D0121C7E021F701207D0121C7E9D
:011D87002239
:0C000600AB077F81121D67AF03021D676E
:101EC600EF70047FA48007EF640170057FA5121DE3
:021ED600672281
:101ED800EF70047FA68007EF640170057FA7121DCD
:021EE80067226F
:101EEA00EF70047FAE8007EF640170057FAF121DAB
:021EFA0067225D
:0C005600AB077F20121D67AF03021D677F
:101E7C00AB05AA077F21121D67AF02121D67AF03C6
:031E8C00021D67CD
:101E8F00AB05AA077F22121D67AF02121D67AF03B2
:031E9F00021D67BA
:071FD700EF4440FF021D670B
:101EFC00EF70047FA08007EF640170057FA1121DB5
:021F0C0067224A
:0C1FAB00AB077FA8121D67AF03021D6783
:101F0E00EF70047FC08007EF640170057FC8121D5B
:021F1E00672238
:0C1FB700AB077FD3121D67AF03021D674C
:101F4200AB077FDA121D671219824402FF021D6776
:101F2000AB05AA077FD5121D671219824AFF021D51
:011F30006749
:101F3100AB05AA077FD9121D671219824AFF021D3C
:011F41006738
:0E1F9D00AB077FDB121D67121982FF021D6762
:101DDD00AB077F8D121D67EB70047F108007EB64DE
:091DED000170057F14121D67222C
:101BBE00E4FF1200567D7FE4FF121E7C7D07E4FFDA
:101BCE00121E8FE4FBEB1219895017E4FAEAC39444
:101BDE0080748094805008E4FF121D460A80EE0B3C
:021BEE0080E392
:011BF00022D2
:10199800E4FF121EEA7D0FE4FF121F207F3F121F93
:1019A800ABE4FF121FB7E4FF121FD77F01121DDD42
:1019B8007F01121EFC7F01121F0EE4FF121F427FDF
:1019C800FF1200067D0F7F02121F317F03121F9D39
:1019D800E4FF121EC6E4FF121ED8121BBE7F327E21
:1019E80000121DF67F01121EEA7F647E00021DF6BA
:0A1000009000BAEDF0A3EBF0A90791
:10100A00E49000C0F0121BBE7F011200567D077FDC
:10101A0001121E8FE96401701B7D1F7F1C121E7C4A
:10102A009000BE7404F01219919001057401F0A3A6
:10103A00744001D19000BE7410F09000C0E01460BA
:10104A001814602114602A2403600221697D307F0C
:10105A0021121E7C9000BA80227D417F32121E7CB2
:10106A009000BB80167D527F43121E7C9000BC808C
:10107A000A7D637F54121E7C9000BDE09000BFF091
:10108A009000BFE0FF121989501D121991EF75F0F7
:10109A0040A4FF900105E5F0F0A3EFF0A3E4F0A36C
:1010AA007440F07D06802A1219919000BFE024F85E
:1010BA00FFE434FFFEEF7806C333CE33CED8F9FF10
:1010CA00900105EEF0A3EFF0A3E4F0A37440F07DE5
:1010DA000712153DE4FB9000BEE0F9EBC39950708E
:1010EA007A01EA1219895065EA14B40700505B9034
:1010FA00110325E0500205837321112113211521C3
:10110A00172125213321158012801E802AEB25E024
:10111A0025E024C4F582E434008028EB25E025E0AC
:10112A0024C1F582E43400801AEB25E025E024C2CC
:10113A00F582E43400800CEB25E025E024C3F58237
:10114A00E43400F583E0FF121D460A80950B808681
:0F115A00E964047002013E9000C0E004F0013E21
:011169002263
:0C1844009000B91206499000BD12068FFA
:10185000E4FFFE7D207C419000B9120631120304A2
:10186000E4FFFE50247DC87C4212196D7D6412197C
:1018700055EF12055F12195A900001740A121941AE
:10188000121953900002ED80257D207C4112196DC4
:101890007D6412194612195AEF12055F121944128B
:1018A0001953900001ED120571900002740A12198B
:0B18B0004112195A900003ED1205715F
:0118BB00220A
:06130D009000B912068FEA
:101313001203BB9000BDEEF0A3EFF0C39410EE9464
:10132300275012E094E79000BDE094034007E49057
:1013330000BCF0803F9000BDE0FEA3E0FFC394E853
:10134300EE94035010EF9463EE940040089000BCB9
:101353007401F0801FC3EF9464EE94005010EF9477
:1013630009EE940040089000BC7402F080069000DF
:10137300BC7403F09000BDE0FEA3E0FF7C037DE8B6
:10138300121964EF12055F7D64121934121960900B
:10139300000112192E12196090000212192E12194F
:1013A30067900003ED1205719000BCE0F09000BC63
:1013B300E0FFD3940074809480401CEF24FFFFE48B
:1013C30034FFFE1219678F828E83740E120571909B
:0713D30000BCE014F080D61D
:0113DA0022F0
:1017280000000000000000000000000000000000B1
:1017380000000000000000000000000000000000A1
:101748000000000000000000000000000000000091
:101758000000000000000000000000000000000081
:101768000000000000000000000000000000000071
:101778000000000000000000000000000000000061
:101788000000000000000000000000000000000051
:101798000000000000000000000000000000000041
:1017A8000000000000000000000000000000000031
:10116A00F812060CE4FBFAF9783F02015E9000409F
:10117A00E0FCE4120387A804A905AA06AB07227DAE
:10118A00007BFF7E007F2402050C9000BBE025E077
:10119A0025E0240CF822AF0BAE0AAD09AC0822AF49
:1011AA000BAE0AAD09AC082212006D8F0B8E0A8DA8
:1011BA00098C082212006D8F0B8E0A8D098C082269
:1011CA00900040E0FF9000BBE022900040E0FF90DA
:1011DA0000BBE0229000BBE025E025E0240CF822C9
:1011EA00E025E025E02461F582E43400F58322A3BA
:1011FA001206189000B5E025E025E02225E025E05A
:10120A002445F582E4340022FD7BFFFE7F2402059B
:10121A000C12063D7D0A7C007F01229000BBE0048F
:10122A00F02212015E9000410206319000BBE004F8
:02123A00F022A0
:1015E600E49000B5F09000B5E0FFC3942C748094AD
:1015F600804002C1897B017A0079B6EF75F004A4B8
:10160600FF900105E5F0F0A3EFF0A3E4F0A3740466
:10161600F07D0112153D9000B5E0FBC39407748080
:101626009480500AA3120618EB1212068048900006
:10163600B5E0FF7E00D39406748094804015EF9445
:101646001774809480500C1211F924E4F582E43466
:10165600FF80239000B5E0FF7E00D394167480943B
:10166600804018EF942C74809480500F1211F92446
:1016760005F582E43400F5831206499000B5E004CE
:03168600F0A1EBE5
:01168900223E
:080698009000B9EFF0A3EDF0B2
:1006A000E4F50BF50AF509F508780C7C007A177962
:1006B0002812121278307C007A17794C121189E4D2
:1006C0009000BBF01211CAC39F5011120BD012112F
:1006D0009412121B121CD612122580E8E49000BB63
:1006E000F01211CAC39F50489000B9E0121206F5EB
:1006F0008312061812118012122C12015EC004C05F
:1007000005C006C0079000BA1211EA1206181211AD
:100710009412062412015E121180D007D006D00573
:10072000D00412026712119412063D121225C1E183
:10073000850F33850E32850D31850C301211A0AB3B
:1007400033AA32A931A8301211B29000BB7401F063
:100750001211CAFEC39F504FEE25E025E0242C1253
:10076000116AC004C005C006C0079000BBE025E0C8
:1007700025E0240812116AD003D002D001D0001263
:10078000006D9000BBE0FB25E025E02430F8120668
:100790003D1211A0EB25E025E02430F812062412CA
:1007A00011B2121225E1501211A0C004C005C006FA
:1007B000C007121177D007D006D005D00412026707
:0F07C0001211B57D1E7C007F02121CD61211A0F3
:0107CF002207
:080EC7009000B9EFF0A3EDF07B
:100ECF00E4F50BF50AF509F508780C7C007A17792B
:100EDF007012121278307C007A177994121189E40B
:100EEF009000BBF01211D4C39F5011120BD01211EE
:100EFF00DE12121B121CD612123580E8E49000BBD2
:100F0F00F01211D4FEC39F503F9000BA1211EA1293
:100F1F000631C000EE1211E212060CD00012015E73
:100F2F009000B9E025E025E02400F582E43400F5D7
:100F3F008312063112122C1202671214951211DE4F
:100F4F0012063D12123580B9850F33850E32850D8D
:100F5F0031850C301211A9AB33AA32A931A8301246
:100F6F0011BE9000BB7401F01211D4FEC39F504FFD
:100F7F00EE25E025E0242C12116AC004C005C0063E
:100F8F00C0079000BBE025E025E0240812116AD0CD
:100F9F0003D002D001D00012006D9000BBE0FB2502
:100FAF00E025E02430F812063D1211A9EB25E025CB
:100FBF00E02430F81206241211BE121235E1771216
:100FCF0011A9C004C005C006C007121177D007D001
:100FDF0006D005D0041202671211C17D1E7C007F5E
:070FEF0002121CD61211A929
:010FF60022D8
:081E490041010B0041010C00F6
:10168A00E025E025E02445F582E43400F5831206DE
:10169A00187B017A0079B5229000B5E0FDA3E0FB42
:1016AA00A3E09000BCF09000B8E09000BDF0227F6B
:1016BA00CD7ECC7DC77C421206310203047B017ABF
:1016CA00017915E4F0A3F0A3F0A37413F0E4FD226A
:1016DA00E0D394007480948022E025E025E0240081
:1016EA00F582E43400F58322900120E0640122901F
:1016FA000041120618E4FBFAF9783F22E025E025BA
:10170A00E02461F582E4340022900120E0640222A0
:0E171A00900120E0640322900120E06404228C
:1018BC009001051216C712153D900116E090010D0E
:1018CC00F0900117E090010EF0900118E090010FDC
:1018DC00F0900119E0900110F090011BE0900111C3
:1018EC00F090011CE0900112F090011DE0900113AA
:1018FC00F090011EE0900114F0900123E090004064
:10190C00F0900124E0900041F0900125E09000421D
:10191C00F0900126E0900043F0900127E090004405
:02192C00F022A7
:10080000C2AF90010BE0600201E290012EE06401B2
:10081000701DF0900120E0C3940374809480400820
:10082000A3E06401600221FC90010C740101F890C6
:10083000012FE06401702BF0900122E07012900112
:1008400015E0FF90011FE0FD12069890011121F9BB
:1008500090011AE0FF90011FE0FD120EC790010DFC
:1008600021F9900130E06401700DF0900120121622
:10087000DA500221FC21C0900131E064017011F0D6
:10088000900122E064017003F021FC900122804D70
:10089000900132E06401702CF0900120E0C39402DA
:1008A0007480948050028075900120E0C394047499
:1008B000809480400221FCA3E06401600221FC904E
:1008C000012021AE900133E06401600261CDF0901F
:1008D0000121E064017003F021FC9001217401F01A
:1008E00021FC90010BE06401600221FC90012EE0EC
:1008F0006401700BF090010CF090010BF021FC9062
:100900000130E06401707AF0900120E070119001F4
:1009100015E0C3940674809480400221FC21AE123D
:1009200016F2700C90011A1216DA500221FC21C046
:10093000121713701190011FE0C3941474809480F7
:10094000400221FC21AE12171A7014900040E0C33F
:10095000940974809480400221FCE004F021FC1290
:100960001721600221FCFFFE7DC77C4290004112EE
:1009700016C1400221FC1216F912006D90004121AF
:10098000F9900132E06401600261CDF0900120E055
:10099000700A9001151216DA406280241216F27065
:1009A0001290011AE0C3940F74809480504EE004BA
:1009B000F08049121713700D90011F1216DA403C97
:1009C000E014F0803712171A7012900040E0D394B0
:1009D00001748094804025E014F08020121721706B
:1009E0001BFFFEFD7C3F9000411216C1600E400CC3
:1009F0001216F912006990004112064990010CE0AC
:100A0000FF121ED8900120E0703B900122E06401AB
:100A1000703390010CE0702D7F0A7ED77D237C3CE3
:100A2000A31216C15002418C90010D1216B990010B
:100A30000D600A400812169812130D6124121698C0
:100A40001218446124900120E07020900115E0C349
:100A5000940374809480500812168A1218448009F6
:100A600090011512168A12130D61241216F2704E9F
:100A7000900122E0704890010CE070427F177EB731
:100A80007DD17C389001111216C1500B9000BC74BE
:100A90000EF0A3740B613D9001111216B96007406E
:100AA00005900111802DE4FFFE7D807C3F900111B7
:100AB0001216C1900111600250028025614E12167B
:100AC000F2703890011AE0C3940574809480500B42
:100AD0001216E312169812130D612490011A1216C1
:100AE000E3120631E4FFFE7D807C3F12026712169E
:100AF0009B12130D1216A27F016159121713702B4E
:100B000090011FE0C3940274809480500B1217066A
:100B1000121696121844800C90011F121706121616
:100B20009612130D1216A2E4FF802E12171A7016D9
:100B30009000BC740EF0900040E09000BDF07B0E81
:100B40007D0EE4FF801312172170119000411216E0
:100B5000981218441216A2E4FF12100090010DE042
:100B6000900116F090010EE0900117F090010FE057
:100B7000900118F0900110E0900119F0900111E03F
:100B800090011BF0900112E090011CF0900113E025
:100B900090011DF0900114E090011EF0900040E0E3
:100BA000900123F0900041E0900124F0900042E099
:100BB000900125F0900043E0900126F0900044E081
:0F0BC000900127F09000BD1216C71213DBD2AFC1
:010BCF002203
:10006600020427E86480F8E933E83360110460F09D
:10007600ED33EC337009E8FCE9FDEAFEEBFF220400
:1000860060DED3EB9FEA9EE99DE8C2E78CF0C2F7FB
:1000960095F0400CE8CCF8E9CDF9EACEFAEBCFFBC7
:1000A6001203F285D0F05804700320D5B3E804702B
:1000B600075002B2D502043192D5EC0460F7E4CCC5
:1000C600C0E0C398F8603B94186008400DD0E0FB90
:1000D600020409E4FBFAC9FC8028E830E406E4C916
:1000E600FBE4CAFCE830E305E4C9CACBFCE85407E4
:1000F6006010F8C3E913F9EA13FAEB13FBEC13FCEF
:10010600D8F130F52FC3E49CFCEF9BFFEE9AFEED91
:1001160099FDD0E0FBEF4E4D4C701222DB0302043A
:100126002EEC2CFCEF33FFEE33FEED33FDED30E726
:10013600EB020409EF2BFFEE3AFEED39FDD0E0FBB2
:1001460050130BBB0003020431ED13FDEE13FEEF5B
:0801560013FFEC13FC02040985
:10015E00EC4D6011E8497017ED33EC3304600DE49B
:10016E00FCFFFEFD22E933E8330470F80204271287
:10017E0003F258046009E4CC248150062850090289
:10018E00043128400302042EC0E0EB4A7044B980CB
:10019E0006D0E0FB02041DEF4E701CBD8008EBFF85
:1001AE00EAFEE9FD80EBE98DF0A4FEE5F0020247E0
:1001BE00E9CDF9EAFEEBFFEF89F0A4FCE5F0CE897C
:1001CE00F0A42EFFE435F0CD89F0A42DFEE435F039
:1001DE008067EF4E7005BD80D780C3EF8BF0A4AC67
:1001EE00F0EE8BF0A42CFCE435F0F8EF8AF0A42CA2
:1001FE00E5F038FCE433CB8DF0A42CFCE5F03BF8B5
:10020E00EE8AF0A42CFCE5F038F8E433CF89F0A4A4
:10021E002CFCE5F038CF3400CE89F0A42FFFE5F0AA
:10022E003EFEE433C98DF0A42EFEE5F039CD8AF002
:10023E00A42FFFE5F03EFEE43DFD33D0E0FB50077A
:10024E000BBB000F020431EC2CFCEF33FFEE33FE40
:06025E00ED33FD0204096E
:10026400020431EC5D046005E859047003020427BC
:100274001203F2580460F6EC4860F2EC7004FDFEE0
:10028400FF22C860DB2481C85009C398600250066D
:1002940002042E9850CAF582E9294B4A7005AB82B4
:1002A40002041D75F0007C1A7880C3EF9BEE9AED72
:1002B40099400DC3EF9BFFEE9AFEED99FDE842F0E5
:1002C400DC23ACF0D0E0FFD0E0FED0E0FDAB822038
:1002D400E7101BEB60BAEC2CFCEF33FFEE33FEEDC2
:1002E40033FD020409E803F830E705C0F075F000B7
:1002F400EF2FFFEE33FEED33FD40B830E7C280AAA6
:1003040074F8CC6480CCC86480C8F58204604FC3A0
:10031400EB9FF5F0EA9E42F0E99D42F0E89C45F03F
:10032400603C501DE5825FFFE582D313CB5BCBF4C9
:100334002B5582FB50280ABA002409B900200880F2
:100344001DE5825BFBE582D313CF5FCFF4C3132F8C
:100354005582FF50090EBE00050DBD00010CC3EB14
:100364009FF5F0EA9E42F0E99D42F0E89C45F0607A
:0903740007CC4820E701B3EC229C
:10037D0075F020800E75F010800575F0087D007EFB
:10038D00007F003392D530D5031205FEEC334010BB
:10039D00EF33FFEE33FEED33FDEC33FCD5F0ED2204
:0E03AD00E5F0247EA2D513CC92E7CDCEFF2240
:1003BB00EDD2E7CD33EC3392D524814006E4FFFE3A
:1003CB00FDFC22FCE4CFCECDCC24E0501174FF8099
:1003DB00EDC3CC13CCCD13CDCE13CECF13CF047036
:0703EB00F030D5DE0205FE33
:1014910002042722EDA2E7D2E7F9EC3340F260F330
:1014A100B4FF08ED547F70E8020431F82481C2E0F2
:1014B100C0E0F40428FAC313FCED92E7FD9000BCF0
:1014C100120649EEA2E7E9BA7F02C3133400940081
:1014D100FA75F091A4E5F013F494FE8AF0A433E5D3
:1014E100F033248CD313FDE492E7FE7F007C3F753B
:1014F1008302ECC0E0F8EDC0E0F9EEC0E0FAEFC025
:10150100E0FB8583F09000BC12061885F08312027F
:1015110067D0E0FBD0E0FAD0E0F9D0E0F812006D3E
:10152100ED6480FD30E7011CD583C7ED33CC33F882
:0C153100D0E0A2E71328C313CC13FD2266
:1003F200E9D2E7C933E833F892D5EDD2E7CD33EC51
:0704020033FC5002B2D522C9
:10040900EC30E7100FBF000C0EBE00080DBD000454
:100419000BEB6014A2D5EB13FCED92E7FD2274FF00
:10042900FCFDFEFF22E480F8A2D574FF13FC7D8059
:03043900E480EF6D
:030000000217B82C
:0C17B800787FE4F6D8FD7581530217FF1E
:10043C00E709F608DFFA8046E709F208DFFA803EA2
:10044C0088828C83E709F0A3DFFA8032E309F6088F
:10045C00DFFA8078E309F208DFFA807088828C83F7
:10046C00E309F0A3DFFA806489828A83E0A3F608AB
:10047C00DFFA805889828A83E0A3F208DFFA804C85
:10048C0080D280FA80C680D4806980F2803380105C
:10049C0080A680EA809A80A880DA80E280CA8033C5
:1004AC0089828A83ECFAE493A3C8C582C8CCC5833D
:1004BC00CCF0A3C8C582C8CCC583CCDFE9DEE7800D
:1004CC000D89828A83E493A3F608DFF9ECFAA9F08C
:1004DC00EDFB2289828A83ECFAE0A3C8C582C8CCE2
:1004EC00C583CCF0A3C8C582C8CCC583CCDFEADEFB
:1004FC00E880DB89828A83E493A3F208DFF980CC5D
:10050C0088F0EF60010E4E60C388F0ED2402B40455
:10051C000050B9F582EB2402B4040050AF232345FC
:06052C00822390048C7391
:10053200BB010CE58229F582E5833AF583E022507E
:1005420006E92582F8E622BBFE06E92582F8E222C8
:0D055200E58229F582E5833AF583E49322E2
:10055F00BB010689828A83F0225002F722BBFE017B
:02056F00F32275
:10057100F8BB010DE58229F582E5833AF583E8F0C0
:10058100225006E92582C8F622BBFE05E92582C86C
:02059100F22254
:10059300BC000BBE0029EF8DF084FFADF022E4CC4C
:1005A300F875F008EF2FFFEE33FEEC33FCEE9DEC15
:1005B300984005FCEE9DFE0FD5F0E9E4CEFD22ED5B
:1005C300F8F5F0EE8420D21CFEADF075F008EF2FA5
:1005D300FFED33FD4007985006D5F0F222C398FD96
:0505E3000FD5F0EA2233
:1005E800C5F0F8A3E028F0C5F0F8E582158270029E
:0605F8001583E038F0223B
:0E05FE00C3E49FFFE49EFEE49DFDE49CFC220E
:0C060C00E6FC08E6FD08E6FE08E6FF221A
:0C061800E0FCA3E0FDA3E0FEA3E0FF2255
:0D062400E6FB08E6F908E6FA08E6CBF82246
:0C063100E0F8A3E0F9A3E0FAA3E0FB224C
:0C063D00ECF608EDF608EEF608EFF622E9
:0C064900ECF0A3EDF0A3EEF0A3EFF02224
:10065500A8828583F0D083D08212066C12066C12B4
:10066500066C12066CE473E493A3C583C5F0C583D9
:10067500C8C582C8F0A3C583C5F0C583C8C582C8EF
:010685002252
:09068600E0FBA3E0FAA3E0F92275
:09068F00EBF0A3EAF0A3E9F0226C
:1017C40002123CE493A3F8E493A34003F68001F2ED
:1017D40008DFF48029E493A3F85407240CC8C33326
:1017E400C4540F4420C8834004F456800146F6DFF5
:1017F400E4800B0102040810204080901E3CE47E2B
:10180400019360BCA3FF543F30E509541FFEE493E9
:10181400A360010ECF54C025E060A840B8E493A3B0
:10182400FAE493A3F8E493A3C8C582C8CAC583CADB
:10183400F0A3C8C582C8CAC583CADFE9DEE780BE93
:011E51000090
:00000001FF
